:020000040800F2
:100000000804002051070008390700083B070008D2
:100010003D0700083F0700084107000800000000F6
:10002000000000000000000000000000430700087E
:1000300045070008000000004707000849070008BE
:10004000690700086D0700087107000875070008B8
:10005000790700087D07000873050008810700087C
:1000600085070008890700088D0700089107000828
:1000700095070008990700089D070008A1070008D8
:10008000A5070008A9070008AD070008B107000888
:10009000B5070008B9070008BD070008C107000838
:1000A000C5070008C9070008CD070008D1070008E8
:1000B000D5070008D9070008DD070008E107000898
:1000C000E5070008E9070008ED070008F107000848
:1000D000F5070008F9070008FD07000801080008F7
:1000E0007D05000805080008090800080A00D2B2CA
:1000F000012A4AD1DFF87023904206D1DFF86C2341
:10010000136853F0040313603FE0DFF86423904268
:1001100006D1DFF85823136853F00803136034E066
:10012000DFF85023904206D1DFF84023136853F0E4
:100130001003136029E0DFF84023904206D1DFF876
:100140002C23136853F0200313601EE0DFF82C23E8
:10015000904206D1DFF81423136853F04003136074
:1001600013E0DFF81C23904206D1DFF80023136868
:1001700053F08003136008E0DFF80823904204D1B5
:10018000BA4A136853F4807313607047F0B50022C5
:1001900000234179042929DA0179C9B2C908C9B211
:1001A0000A000179082491FBF4F504FB151189007C
:1001B0000B00016851F822100F249C40A1430468F1
:1001C00044F82210016851F8221044799C402143E0
:1001D000046844F82210016851F822408579991C7E
:1001E0008D402C43016841F822408CE0417904297C
:1001F00011D10124A4490D6890F9046014FA06F69F
:1002000035430D60A14D2E6890F904108C4036EAFC
:1002100004042C6027E04179052911D19B49012470
:100220000D6890F9046014FA06F635430D60964D9A
:100230002E6890F904108C4036EA04042C6012E019
:10024000417906290FD1914901240D6890F9046084
:1002500014FA06F635430D608B4D2E6890F90410A4
:100260008C4034432C6001687F4CA14201D10024B2
:1002700024E07F4904688C4201D101241EE0046817
:100280008C4201D1022419E004688C4201D103247C
:1002900014E004688C4201D104240FE004688C420D
:1002A00001D105240AE004688C4201D1062405E04E
:1002B00004688C4201D1072400E000240579EDB2E6
:1002C000AD080179042791FBF7F607FB161667497D
:1002D0000F6857F001070F602700FFB2B1008F4091
:1002E0006B49AC465FFA8CFC41F82C70694FD7F82B
:1002F00000C05FF0010E90F904101EFA01FE5EEAE4
:100300000C0CC7F800C0F0BD02009068C84010F0A7
:100310000100C0B27047C26801238B405A40C260DE
:100320007047F0B40A00D2B2012A38D10200D2B22A
:10033000202A06DA584A13680124844023431360B4
:1003400065E00200D2B2202A12DB0200D2B2402ABB
:100350000EDA0200D2B22023504C2568012692FB0F
:10036000F3F703FB172216FA02F22A4322604EE04B
:100370000200D2B2402A4ADB0200D2B2602A46DA38
:100380000200D2B24023464C2568012692FBF3F7C7
:1003900003FB172216FA02F22A43226037E002001A
:1003A000D2B2202A06DA3F4A13680124844023434C
:1003B00013602CE00200D2B2202A12DB0200D2B27B
:1003C000402A0EDA0200D2B22023374C25680126DB
:1003D00092FBF3F703FB172216FA02F22A4322607C
:1003E00015E00200D2B2402A11DB0200D2B2602A2C
:1003F0000DDA0200D2B240232C4C2568012692FB74
:10040000F3F703FB172216FA02F22A432260F0BC2C
:100410007047F0B40200D2B292080400E4B204259E
:1004200094FBF5F305FB13431C00E4B2E400241D28
:100430001F4D1600F6B255F826600F00FFB2A74018
:100440003E431700FFB245F82760F0BC70471949DA
:100450000A68C240D20704D50A68012383401A43C0
:100460000A607047000000000008014018100240B8
:10047000000C014000100140001401400018014030
:10048000001C0140002001400C0401400804014010
:10049000080001400004014000E100E004E100E048
:1004A00008E100E080E100E084E100E088E100E0B4
:1004B00000E400E01404014002000B00501E73F140
:1004C0000001002BF8D1002AF6D170472DE9F8433E
:1004D00084B00826002702AC3A003100200000F06A
:1004E00087F85FF008085FF000096C464A4641460D
:1004F000200000F07DF83B4C02940D208DF80C009C
:1005000002208DF80D0000208DF80E000121200042
:10051000FFF7ECFD02A8FFF739FE334D00950C20E4
:100520008DF8040005208DF8050002208DF80600E6
:1005300005208DF8070001212800FFF7D7FD684648
:10054000FFF724FE0F212820FFF763FF0121282059
:10055000FFF7E7FE0C212800FFF7D6FE0128F9D1AE
:1005600022480021FFF7A8FF0D212000FFF7D3FE4E
:10057000F0E780B50020FFF76AFF01BD10B5194C08
:100580000D212000FFF7C7FE4CF250300021FFF78D
:1005900093FF0D212000FFF7BEFE4CF250300021EA
:1005A000FFF78AFF0D212000FFF7B5FE4CF2503017
:1005B0000021FFF781FF0D212000FFF7ACFE4CF278
:1005C00050300021FFF778FF0D212000FFF7A3FE38
:1005D0004CF250300021FFF76FFF0C20FFF737FF80
:1005E00010BD000000100140000C014080841E007E
:1005F00062F30F2262F31F42401810F0030308D089
:10060000C91A1FD3DB0748BF00F8012D28BF20F807
:10061000022D130030B414461546103928BF20E9C6
:100620003C00FAD8490728BF20E90C0048BF40F831
:10063000042D890028BF20F8022D48BF00F8012DA5
:1006400030BC7047C91818BF00F8012DCB0728BF70
:1006500000F8012D70470EE002684368024408303C
:100660005FEAC37C44BF4B445B1E52F804CB43F8A3
:1006700004CB091FF9D150F8041B0029ECD17047B5
:1006800010B5074979441831064C7C44163404E00F
:100690000A68081D114488470146A142F8D110BDDF
:1006A0000800000018000000AFFFFFFF0800000076
:1006B000B0000000000000200000000000F00DF875
:1006C000002801D0FFF7DCFFAFF300800020AFF37C
:1006D0000080FFF7FBFE00F002F80120704700F0F9
:1006E00001B800000746384600F002F8FBE70000BA
:1006F00080B5AFF30080024A11001820ABBEFBE7C3
:10070000260002000548014603B4684680F30988C4
:10071000AFF30080AFF30080FFF7D0FFA5EDF5FE4B
:1007200003490A680348007882180A60704700BFCE
:100730000000002004000020FEE7FEE7FEE7FEE7E1
:10074000FEE770477047704780B5FFF7E9FF01BDCE
:1007500001488047014800470D08000805070008C8
:100760000000000001000000FFF7FEBFFFF7FEBF22
:10077000FFF7FEBFFFF7FEBFFFF7FEBFFFF7FEBFAD
:10078000FFF7FEBFFFF7FEBFFFF7FEBFFFF7FEBF9D
:10079000FFF7FEBFFFF7FEBFFFF7FEBFFFF7FEBF8D
:1007A000FFF7FEBFFFF7FEBFFFF7FEBFFFF7FEBF7D
:1007B000FFF7FEBFFFF7FEBFFFF7FEBFFFF7FEBF6D
:1007C000FFF7FEBFFFF7FEBFFFF7FEBFFFF7FEBF5D
:1007D000FFF7FEBFFFF7FEBFFFF7FEBFFFF7FEBF4D
:1007E000FFF7FEBFFFF7FEBFFFF7FEBFFFF7FEBF3D
:1007F000FFF7FEBFFFF7FEBFFFF7FEBFFFF7FEBF2D
:0E080000FFF7FEBFFFF7FEBFFFF7FEBF70471A
:0400000508000705E3
:00000001FF
